:100000000C94E0000C9408010C9408010C94350841
:100010000C9435080C9435080C9408010C940801D4
:100020000C9408010C9408010C9408010C9408012C
:100030000C9408010C9408010C9408010C9408011C
:100040000C9493070C9408010C9403080C94DD079E
:100050000C9408010C9408010C9408010C940801FC
:100060000C9408010C94080100407A10F35A00A087
:10007000724E18090010A5D4E80000E87648170071
:1000800000E40B54020000CA9A3B000000E1F505B1
:10009000000080969800000040420F000000A086FB
:1000A00001000000102700000000E803000000002D
:1000B0006400000000000A000000000001000000D1
:1000C00000002C76D888DC674F0823DFC1DFAE59EB
:1000D000E1B1B796E5E3E453C63AE651997696E87E
:1000E000E6C28426EB898C9B62ED407C6FFCEFBC02
:1000F0009C9F40F2BAA56FA5F490055A2AF75C932D
:100100006B6CF9676DC11BFCE0E40D47FEF520E662
:10011000B500D0ED902E0300943577050080841E45
:10012000080000204E0A000000C80C333333330FA0
:10013000986E12831141EF8D2114893BE65516CF3D
:10014000FEE6DB18D1844B381BF77C1D901DA4BB49
:10015000E424203284725E228100C9F124ECA1E5FE
:100160003D2700000000240027002A0000000008AE
:10017000000201000003040700000000000000006E
:1001800000000000230026002900000000002500D8
:1001900028002B00040404040404040402020202E4
:1001A000020203030303030301020408102040803A
:1001B000010204081020010204081020AD082A0DD5
:1001C00011241FBECFEFD8E0DEBFCDBF23E0AEEAE3
:1001D000B2E001C01D92A03EB207E1F712E0A0E03C
:1001E000B1E0EAE0F9E202C005900D92AE3AB10743
:1001F000D9F710E0CFEDD0E004C02197FE010E94B6
:100200004E11CE3DD107C9F70E9485090C94781490
:100210000C940000CF92DF92EF92FF92CF93DF9386
:10022000B091D003A0E08111AB2F8091D10390E079
:10023000880F991FAC0140585E4FC090D603D090F4
:10024000D703E090D803F090D90330E020E0FA0122
:10025000C591D491E881B90190E080E0EB23EA13E5
:100260000AC02F5F3F4F6C157D058E059F0578F303
:100270006FEF7FEFCB01DF91CF91FF90EF90DF9099
:10028000CF90089590E0FC01E459FE4F2491FC01C9
:10029000E855FE4F3491FC01EC56FE4FE491EE23FD
:1002A000C9F0222339F0233001F1A8F4213019F1EB
:1002B000223029F1F0E0EE0FFF1FE657FE4FA59127
:1002C000B4918FB7F894EC91611126C030953E231C
:1002D0003C938FBF08952730A9F02830C9F024300F
:1002E00049F7809180008F7D03C0809180008F77D7
:1002F00080938000DFCF84B58F7784BDDBCF84B55A
:100300008F7DFBCF8091B0008F778093B000D2CFEC
:100310008091B0008F7DF9CF3E2BDACFCF93DF9362
:1003200090E0FC01E855FE4F24918C569E4FFC0155
:1003300084918823C9F090E0880F991FFC01EE5941
:10034000FE4FA591B491FC01E657FE4FC591D491A3
:1003500061110DC09FB7F8948C91209582238C93E6
:100360008881282328839FBFDF91CF910895623031
:1003700051F49FB7F8943C91822F809583238C93FE
:10038000E8812E2BEFCF8FB7F894EC912E2B2C9386
:100390008FBFEACF3FB7F8948091F3029091F402B7
:1003A000A091F502B091F60226B5A89B05C02F3F9B
:1003B00019F00196A11DB11D3FBFBA2FA92F982F8B
:1003C0008827BC01CD01620F711D811D911D42E086
:1003D000660F771F881F991F4A95D1F708958F924E
:1003E0009F92AF92BF92CF92DF92EF92FF924B011A
:1003F0005C010E94CA016B017C010E94CA016C1958
:100400007D098E099F09683E734081059105A8F317
:1004100021E0821A9108A108B10888EEC80E83E095
:10042000D81EE11CF11C81149104A104B10429F728
:10043000FF90EF90DF90CF90BF90AF909F908F9004
:100440000895CF92DF92EF92FF920F931F93CF9375
:10045000DF93CDB7DEB7C054D1400FB6F894DEBFFE
:100460000FBECDBF2FB7F8948091F7029091F8029C
:10047000A091F902B091FA022FBF4091D20350919E
:10048000D3036091D4037091D5038C019D01041BAB
:10049000150B260B370BB901A801403D57406105EC
:1004A000710590F48091DA03C05CDE4F0FB6F894CA
:1004B000DEBF0FBECDBFDF91CF911F910F91FF9097
:1004C000EF90DF90CF9008958093D2039093D30361
:1004D000A093D403B093D5031092CD031092CC0314
:1004E0001092CB031092CA031092C90362E080916C
:1004F000CE030E948E0161E070E080E090E00E94F7
:10050000EF0161E08091CE030E948E0160E0809156
:10051000CE030E9442018091CF038551823020F5A5
:100520008BE291E10197F1F762E08091CE030E94A6
:100530008E018091DB0390E08230910538F0880FC6
:10054000991F880F991F05970197F1F7F89480E09C
:100550000E940A016F3F7F4F8F4F9F4F61F41092AF
:10056000DA03789480E0A0CF64E170E080E090E06E
:100570000E94EF01D9CF81E00E940A016F3F7F4FB7
:100580008F4F9F4F61F38E010F5F1F4F6E018FEBF7
:10059000C81A8EEFD80A780180E00E940A01F7019C
:1005A000608371838283938381E00E940A01F70153
:1005B0006483758386839783F8E0EF0EF11CEC1457
:1005C000FD0451F7789430E020E0F801C080D1803C
:1005D000E280F3804481558166817781FFEFCF16F9
:1005E000DF06EF06FF0631F04F3F8FEF5807680731
:1005F000780719F41092DA03B5CFF90183E0F59585
:10060000E7958A95E1F7E753FC4F8081880FC41680
:10061000D506E606F70610F180832F5F3F4F085F8F
:100620001F4F2832310589F64091CD032091C9032F
:100630008091CA03280F3327331F8091CB03280FE3
:10064000311D8091CC03820F932F911D992748175C
:10065000190681F681E08093DA0326CF8160DCCF32
:10066000AF92BF92CF92DF92EF92FF920F931F93C0
:10067000CF93DF936C017B018B01040F151FEB01FE
:100680005E01AE18BF08C017D10759F06991D601B5
:10069000ED91FC910190F081E02DC6010995892B27
:1006A00079F7C501DF91CF911F910F91FF90EF90E6
:1006B000DF90CF90BF90AF900895FC01538D448D93
:1006C000252F30E0842F90E0821B930B541710F0FD
:1006D000CF96089501970895FC01918D828D98170A
:1006E00061F0A28DAE0FBF2FB11D5D968C91928DE2
:1006F0009F5F9F73928F90E008958FEF9FEF089513
:10070000FC01918D828D981731F0828DE80FF11DDB
:10071000858D90E008958FEF9FEF0895FC01918DF6
:10072000228D892F90E0805C9F4F821B91098F73EF
:10073000992708958BEF92E00E948E0321E0892B88
:1007400009F420E0822F089580E090E0892B29F0C1
:100750000E949A0381110C9400000895FC01A48D5D
:10076000A80FB92FB11DA35ABF4F2C91848D90E0D3
:1007700001968F739927848FA689B7892C93A089B6
:10078000B1898C91837080648C93938D848D981340
:1007900006C00288F389E02D80818F7D80830895D3
:1007A000EF92FF920F931F93CF93DF93EC0181E0C1
:1007B000888F9B8D8C8D98131AC0E889F989808168
:1007C00085FF15C09FB7F894EE89FF896083E8899B
:1007D000F98980818370806480839FBF81E090E08D
:1007E000DF91CF911F910F91FF90EF900895F62E1A
:1007F0000B8D10E00F5F1F4F0F731127E02E8C8DB4
:100800008E110CC00FB607FCFACFE889F9898081F8
:1008100085FFF5CFCE010E94AE03F1CFEB8DEC0F3B
:10082000FD2FF11DE35AFF4FF0829FB7F8940B8F15
:10083000EA89FB8980818062CFCFCF93DF93EC017F
:10084000888D8823B9F0AA89BB89E889F9898C91B8
:1008500085FD03C0808186FD0DC00FB607FCF7CF74
:100860008C9185FFF2CF808185FFEDCFCE010E9474
:10087000AE03E9CFDF91CF9108952091F00230913E
:10088000F1022817390771F49091EE028091EF027E
:10089000981741F0E091EE02F0E0E255FD4F8081C3
:1008A00090E008958FEF9FEF08950895EF92FF92E3
:1008B0000F931F93CF93DF93DC015C96ED90FC9038
:1008C0005D97E114F10479F481E090E013969C9334
:1008D0008E93129790E080E0DF91CF911F910F915E
:1008E000FF90EF9008955196ED91FC91529750969C
:1008F0008C915097982F90950FB75E962C915E979C
:10090000122F127021FD6095F8942081112319F1A6
:10091000282B2083E7012197F1F728E0462F50E0AC
:10092000308160FF1AC0382B3083E7012197F1F73F
:10093000BA0175956795215089F7112381F080815F
:10094000892380830FBF5C968D919C910197F1F76D
:1009500081E090E0C1CF2923DCCF3923E5CF90811E
:10096000892BEFCF2091F0023091F102281739073F
:1009700061F48091EF022091EE0290E0805C9F4F45
:10098000821B91098F739927089590E080E0089564
:100990002091F0023091F10228173907B9F49091B3
:1009A000EE028091EF02981789F0E091EE02F0E0FC
:1009B000E255FD4F80812091EE0230E02F5F3F4FE6
:1009C0002F7333272093EE0290E008958FEF9FEF6F
:1009D000089590E080E00895FB0101900020E9F780
:1009E0003197AF01461B570BDC01ED91FC91028062
:1009F000F381E02D09948F929F92AF92BF920F9353
:100A00001F93CF93DF93CDB7DEB7A1970FB6F894BE
:100A1000DEBF0FBECDBF19A2423008F44AE08E01FE
:100A20000F5D1F4F842E912CB12CA12CA501940198
:100A30000E942C11E62FB901CA01EA3004F5E05DED
:100A4000D801EE938D01232B242B252B79F790E0F1
:100A500080E0109729F0BD018BEF92E00E94EC043A
:100A6000A1960FB6F894DEBF0FBECDBFDF91CF9138
:100A70001F910F91BF90AF909F908F900895E95C68
:100A8000DFCFCF93DF93BC018BEF92E00E94EC04A9
:100A9000EC016AE271E08BEF92E00E94EC048C0FB3
:100AA0009D1FDF91CF9108954F925F926F927F9239
:100AB0008F929F92AF92BF92CF92DF92EF92FF926E
:100AC0000F931F93CF936B017C01742EAC019B019C
:100AD0000E9467126DE271E0811126C04601570144
:100AE000E894B7F82FEF3FEF4FE75FE7C501B40198
:100AF0000E94671281110CC02FEF3FEF4FE75FE7B5
:100B0000C501B4010E94D10F61E371E0181664F0D1
:100B10002FEF3FEF4FE75FE4C701B6010E9462127B
:100B20001816ACF465E371E08BEF92E0CF911F9162
:100B30000F91FF90EF90DF90CF90BF90AF909F907C
:100B40008F907F906F905F904F900C94EC042FEFFC
:100B50003FEF4FE75FECC701B6010E94D10F87FD61
:100B6000E1CF20E030E0A901C701B6010E94D10F1A
:100B700010E000E087FF0AC06DE28BEF92E00E9478
:100B8000D0038C01F7FAF094F7F8F094C0E060E03D
:100B900070E080E09FE37C1641F020E030E040E22E
:100BA00051E40E94C111CF5FF6CFA70196010E94C8
:100BB00055112B013C010E9433124B015C014AE0AC
:100BC0000E94FB047C01E00EF11ECC23C1F1C501A3
:100BD000B4010E94D60F9B01AC01C301B2010E9477
:100BE00054114B015C016EE28BEF92E00E94D00346
:100BF000E80EF91EC15018F120E030E040E251E467
:100C0000C501B4010E9437102B013C010E94331230
:100C10004B01B12CA12C4AE0C501B4010E94FB0498
:100C2000E80EF91EC501B4010E94D60F9B01AC016C
:100C3000C301B2010E9454114B015C01DBCFC7011B
:100C4000CF911F910F91FF90EF90DF90CF90BF90C9
:100C5000AF909F908F907F906F905F904F9008958E
:100C60000F931F93CF93DF93EC01FB0144815581D8
:100C700060817181E881F9810280F381E02D09951D
:100C80008C016AE271E0CE010E94EC04800F911F9A
:100C9000DF91CF911F910F9108950F931F93CF93E1
:100CA000DF93EC0188819981009759F02A813B817B
:100CB0002617370730F081E0DF91CF911F910F9118
:100CC00008958B016F5F7F4F0E949113009759F039
:100CD000998388831B830A832C813D81232B59F7B9
:100CE000FC011082E8CF80E0E7CFEF92FF920F93F4
:100CF0001F93CF93DF936115710541F480E0DF917D
:100D0000CF911F910F91FF90EF90089541155105DC
:100D1000B1F07B01EC010C811D81040F151FB8019E
:100D20000E944D06882351F3288139818C819D8151
:100D3000B701820F931F0E9457141D830C8381E01B
:100D4000DECFCF93DF93EC0188819981009711F07A
:100D50000E940813198218821D821C821B821A822B
:100D6000DF91CF910895CF93DF93EC01FB010190C8
:100D70000020E9F73197AF01461B570B0E9475061B
:100D8000811103C0CE010E94A106CE01DF91CF9157
:100D90000895CF93DF93EC01FB014481558160817D
:100DA00071810E947506811103C0CE010E94A106C7
:100DB000CE01DF91CF910895EF92FF920F931F9391
:100DC000CF93DF93EC017B018A01BA010E944D06AB
:100DD00081110BC0CE010E94A106CE01DF91CF91FF
:100DE0001F910F91FF90EF9008951D830C83B70121
:100DF000888199810E945714F0CFCF93DF93EC0143
:100E0000FB018617970749F06081718161157105B3
:100E100041F0448155810E94DC06CE01DF91CF91E3
:100E200008950E94A106F9CFFC011182108213825D
:100E3000128215821482FB0101900020E9F731979C
:100E4000AF01461B570B0C94DC06CF92DF92EF925A
:100E5000FF920F931F93CF93DF9300D0CDB7DEB7F0
:100E60008C016B017A016CE271E00E941407B601FB
:100E70008AEA93E00E9430062FB7F8948091F70237
:100E80009091F802A091F902B091FA022FBF670188
:100E9000FF0CEE08FF08C80ED91EEA1EFB1E2FB776
:100EA000F8948091F7029091F802A091F902B09124
:100EB000FA022FBF8C159D05AE05BF05A8F48AEA7E
:100EC00093E00E94B204892B51F38AEA93E00E94D6
:100ED000C80489831A8241E050E0BE016F5F7F4FF2
:100EE000C8010E947506EBCF69E371E08BEF92E0D9
:100EF0000E94EC04B8018BEF92E00E943006C8011A
:100F00000F900F90DF91CF911F910F91FF90EF9075
:100F1000DF90CF900895FC0180819181009711F0BE
:100F20000C94081308951F920F920FB60F9211247C
:100F30002F933F938F939F93AF93BF938091F7022B
:100F40009091F802A091F902B091FA023091F20268
:100F500023E0230F2D3758F50196A11DB11D2093D5
:100F6000F2028093F7029093F802A093F902B093F3
:100F7000FA028091F3029091F402A091F502B091EF
:100F8000F6020196A11DB11D8093F3029093F40225
:100F9000A093F502B093F602BF91AF919F918F910C
:100FA0003F912F910F900FBE0F901F90189526E83C
:100FB000230F0296A11DB11DD2CF1F920F920FB623
:100FC0000F9211242F933F934F935F936F937F93CF
:100FD0008F939F93AF93BF93EF93FF938BEF92E029
:100FE0000E94AE03FF91EF91BF91AF919F918F91BE
:100FF0007F916F915F914F913F912F910F900FBE15
:101000000F901F9018951F920F920FB60F921124F8
:101010002F938F939F93EF93FF93E0910B03F091A6
:101020000C038081E0911103F091120382FD1BC03B
:101030009081809114038F5F8F7320911503821725
:1010400041F0E0911403F0E0E550FD4F958F80935F
:101050001403FF91EF919F918F912F910F900FBEED
:101060000F901F9018958081F4CF1F920F920FB6AA
:101070000F9211242F933F934F935F936F937F931E
:101080008F939F93AF93BF93EF93FF93E091F00201
:10109000F091F102309749F0A685B7858585968D48
:1010A00091FF14C09C918923A1F4FF91EF91BF910E
:1010B000AF919F918F917F916F915F914F913F91F0
:1010C0002F910F900FBE0F901F9018959C91892320
:1010D00061F7A389B4899C918589809589238C9334
:1010E000868997890197F1F7608D718DA685B785FF
:1010F000558538E020E0CB010197F1F7822F90E091
:1011000095958795282F4C91452309F020683150FB
:1011100091F7868D81FD20958091EF0290E00196F8
:101120008F7399273091EE02381799F0A091EF0252
:10113000B0E0A255BD4F2C938093EF02828D938D2A
:101140000197F1F7A389B4898C919589892B8C93A8
:10115000ACCF868D8160868FF1CF1092FE02109207
:10116000FD0288EE93E0A0E0B0E08093FF02909350
:101170000003A0930103B09302032AE031E030930F
:10118000FC022093FB0225EC30E03093080320930F
:10119000070324EC30E030930A032093090320EC8A
:1011A00030E030930C0320930B0321EC30E03093BC
:1011B0000E0320930D0322EC30E0309310032093B4
:1011C0000F0326EC30E030931203209311031092AA
:1011D000140310921503109216031092170324E0C3
:1011E0002093CE032BE02093CF03ECEAF1E0E491CF
:1011F000E093D003E8E9F1E0E491E093D10340E823
:101200005EE360E070E04093D6035093D7036093B1
:10121000D8037093D9031092AD031092AC0380935E
:10122000AE039093AF03A093B003B093B1038CE1EE
:1012300091E09093AB038093AA031092C1031092A4
:10124000C0031092C3031092C2031092C503109200
:10125000C4031092C7031092C6036091C8036E7F47
:101260006D7F6093C8036695617081E0682783E0B5
:101270000E94420161E083E00E948E01EBEAF1E00E
:10128000E491E093BA03E7E9F1E0E491F0E0EE0FD6
:10129000FF1FE657FE4F859194919093BC03809376
:1012A000BB0360E082E00E948E018091C80381FD53
:1012B00004C061E082E00E94420182E08093B603B4
:1012C000EAEAF1E0E491E093B703E6E9F1E0E491C2
:1012D000F0E0EE0FFF1FE058FE4F85919491909340
:1012E000B9038093B8036DE371E084EA93E00E9450
:1012F000140765E471E08EE993E00E94140760E54D
:1013000071E088E993E00C941407CF93DF93CDB795
:10131000DEB7E3970FB6F894DEBF0FBECDBF78946B
:1013200084B5826084BD84B5816084BD85B58260EA
:1013300085BD85B5816085BD80916E00816080939B
:101340006E00109281008091810082608093810004
:101350008091810081608093810080918000816014
:10136000809380008091B10084608093B10080916F
:10137000B00081608093B00080917A008460809397
:101380007A0080917A00826080937A0080917A005E
:10139000816080937A0080917A00806880937A00DF
:1013A0001092C100E0910B03F0910C0382E0808366
:1013B000E0910703F09108031082E0910903F09196
:1013C0000A038FEC808310921303E0910F03F091D6
:1013D000100386E08083E0910D03F0910E0380817D
:1013E00080618083E0910D03F0910E03808188601D
:1013F0008083E0910D03F0910E03808180688083EB
:10140000E0910D03F0910E0380818F7D8083109217
:10141000C5031092C4031092C3031092C20310922A
:10142000C1031092C0038FE190E09093C7038093B3
:10143000C6039091B603963108F047C021E030E032
:101440003093C1032093C0032DE130E03093C303F8
:101450002093C2032DE030E03093C5032093C403F2
:101460002091680084E0983048F031E09E3008F424
:1014700030E081E001C0880F3A95EAF7822B809333
:1014800068002DE630E0983050F02BE630E09E30DA
:1014900030F02CE630E0963110F030E020E0309370
:1014A000BE032093BD03292F30E0983008F0CFC051
:1014B00081E001C0880F9A95EAF78093BF0380917D
:1014C000C6039091C7030197F1F78091C4039091EF
:1014D000C503892B49F1E091F002F091F10283E01C
:1014E000EA3AF80709F1309739F0A389B4899C9159
:1014F0008589809589238C938091C8038E7F809302
:10150000C8031092EF021092EE028AEA93E09093E1
:10151000F1028093F002E091BD03F091BE0380815F
:101520009091BF03892B808362E08091CE030E945B
:101530008E012FB7F8948091F7029091F802A09154
:10154000F902B091FA022FBF805D9740A109B1095D
:101550008093D2039093D303A093D403B093D50385
:1015600087E38093DB0360ED77E080E090E00E940A
:10157000EF0189E691E00E9441056AE871E0CE0141
:1015800082960E94140740ED57E0BE016E5D7F4FCA
:10159000CE0101967C010E942507C7010E948B079E
:1015A000CE0182960E948B0766E971E0CE01889693
:1015B0000E94140764EA73E0CE0188960E94C9066F
:1015C00061EA71E00E94B3066EE973E00E94C90609
:1015D00063EA71E00E94B3061BA21AA21DA21CA21C
:1015E0001FA21EA2BC01CE0182960E94FD0640E40D
:1015F0005FE1BE016E5D7F4FC7010E942507C701F5
:101600000E948B07CE0182960E948B07CE0188969E
:101610000E948B0785EA91E00E94410530E0C32ECD
:1016200030E0D32E0E942102882351F08091CF0315
:101630008B3030F08D30C0F08551823008F446C0D8
:10164000412C512C20EC622E2FE7722E2BC09E30A5
:1016500040F42850310981E001C0880F2A95EAF74B
:101660002CCF2E503109F7CF6091CA0370E090E083
:1016700080E00E94D80F2DEC3CEC4CEC5DE30E9426
:1016800037104B015C016091C90370E090E080E08D
:101690000E94D80F9B01AC01C501B4010E945511F5
:1016A0002B013C010E942102882309F474C080911F
:1016B000CF038C3009F485C0D8F48B3091F1812CA4
:1016C000912C80ECA82E8FE7B82E55C06091C903ED
:1016D0007091CA0376276727762790E080E00E9402
:1016E000D60F2DEC3CEC4CEC5DE30E943710D8CFCC
:1016F0008551823020F71091CB03612F70E0762F57
:10170000662766277F778091CC03682B90E080E086
:101710000E94D60F2DEC3CEC4CEC5DE30E943710A0
:101720006CC06091CB0370E090E080E00E94D60F27
:101730004B015C011091CC0317FF0AC0AC019B0167
:1017400060E070E080E89FEB0E9454114B015C0167
:101750001F70612F70E090E080E00E94D80F2DECA8
:101760003CEC4CEC5DE30E943710A50194010E9413
:1017700055114B015C01A3019201C301B2010E940A
:101780006712811108C0A5019401C501B4010E942E
:1017900067128823D9F18FEB91E00E94410560ED3B
:1017A00077E080E090E00E94EF01C114D10409F4D9
:1017B00039CF0E949A03882309F434CF0E94000095
:1017C00031CF1091CB03612F70E090E080E00E9458
:1017D000D60F4B015C016091CC036F7070E090E01C
:1017E00080E00E94D80F2DEC3CEC4CEC5DE30E94B5
:1017F0003710A50194010E9455114B015C0117FFA0
:10180000BACFB7FAB094B7F8B094B5CF69ED71E03C
:101810008BEF92E00E94EC0442E0C501B4010E940B
:10182000540567EE71E08BEF92E00E94EC0442E019
:10183000C301B2010E9454058FEF91E00E9441055F
:1018400062E072E0CE018E960E9414071BA21AA2DB
:101850001DA21CA21FA21EA2BE01625D7F4FCE016F
:1018600082960E94FD0640ED57E0BE016E5D7F4FFF
:10187000C7010E9425076CE272E0CE0188960E94A3
:1018800014078D819E81892B61F069807A8068A51B
:1018900079A5C3010E945E148C0106191709892BD2
:1018A00011F40FEF1FEFCE0188960E948B07C7013E
:1018B0000E948B07CE0182960E948B070F3F1F4F1D
:1018C00009F0C3C01BA21AA21DA21CA21FA21EA225
:1018D000870122E044E0C501B4010E94520D009747
:1018E00009F4AEC0FC0101900020E9F73197AF0187
:1018F000481B590BBC01CE0182960E94DC0662E3B4
:1019000072E0C7010E94140768E973E0C7010E94F2
:10191000C90667E472E00E94B306BE016E5D7F4FA8
:101920000E94C90619A618A61BA61AA61DA61CA6C3
:10193000BC01CE0188960E94FD06C7010E948B075C
:10194000CE0182960E948B078CA59DA51BA21AA290
:101950001DA21CA21FA21EA24AE0B70102960E946D
:10196000700DF70101900020E9F73197AF014E1992
:101970005F09B701CE0182960E94DC0660E572E045
:10198000C7010E941407BE016E5D7F4FC7010E9410
:10199000C906BC01CE018E960E94FD06C7010E94B9
:1019A0008B07CE0182960E948B071BA21AA21DA252
:1019B0001CA21FA21EA2BE01625D7F4FCE018296B5
:1019C0000E94FD0640ED57E0BE016E5D7F4FC701EE
:1019D0000E942507C7010E948B07CE0182960E94B4
:1019E0008B07BE01685D7F4F8AEA93E00E94300654
:1019F0008CE592E00E944105CE0188960E948B07FB
:101A000062EA72E0CE0182960E94140740ED57E030
:101A1000BE016E5D7F4FC7010E942507C7010E946E
:101A20008B07CE0182960E948B0760E27EE480E005
:101A300090E00E94EF01CE018E960E948B07B5CEFA
:101A4000CE0182960E94A1065ACF8BE792E00E94B7
:101A50004105D6CF88E993E00E948B078EE993E099
:101A60000E948B0784EA93E00E948B078CE191E04F
:101A70009093AB038093AA038091F0029091F102BE
:101A80008A5A934071F4E091BD03F091BE039081B6
:101A90008091BF038095892380831092F102109278
:101AA000F0020895EF920F931F93CF93DF93E80115
:101AB00034E047FD34E1042E000C550B57FF03C002
:101AC000519541955109E32E022F242FAE010E941A
:101AD0008A0DCE01DF91CF911F910F91EF90089564
:101AE000BB27FB015527AA27880F991FAA1FA417F8
:101AF00010F0A41B83955051B9F7A05DAA3308F0EC
:101B0000A95DA193009779F7B111B1931192CB011F
:101B10000C94C10FA9E0B0E0E0E9FDE00C94FB10EB
:101B20006A01F22EB02E102FFBE3AF2EA01608F4A0
:101B30001BE31F5F012F27E0AE014F5F5F4F0E9445
:101B4000E90EBC018981982F9970913009F43FC04A
:101B50009BE2E1FC04C09E2D9170E0FC3AC05E2D3A
:101B60005071E82FE87083FF46C084E0911101C0F6
:101B700083E0EF2DE81B8F1508F0E0E0D6018E2FF3
:101B800020E2552351F1992329F0D6019C93C601F7
:101B900001966C0196012D5F3F4FE2FE24C08EE45A
:101BA000D6018C9391E411969C93119712968C9385
:101BB000D9018E2F90E281111BC0E20FF32FF11D8E
:101BC00010828EEF9FEF2996ECE00C9417119DE2A6
:101BD000C6CF90E2C4CF2D9381508111FCCFCE0EA1
:101BE000D11CE0E0D0CF8EE6D6018C9391E6DBCF1E
:101BF0009D938150E0CF482F447082FF3DC084E028
:101C0000911101C083E08F1510F4EF2DE81BD60170
:101C10008E2F20E2552309F1992329F0D6019C93B8
:101C2000C60101966C0196012D5F3F4FE2FE1BC07D
:101C300089E4D6018C938EE411968C93119786E4F7
:101C400012968C93D9018E2F90E2882309F4B5CF98
:101C50009D938150FACF2D9381508111FCCFCE0EF0
:101C6000D11CE0E0D9CF89E6D6018C938EE611969F
:101C70008C93119786E6E4CF9B0177FF02C030E09A
:101C800020E0A1E0B0E0911102C0B0E0A0E0F901D5
:101C90003196AE0FBF1F8B2C912CBB2009F461C075
:101CA0005401EFEFAE1ABE0AAA0DBB1DFA161B06B1
:101CB00019F014F04F2D4A1B511188C0E3FC59C094
:101CC0007601A42FB0E2A1114FC0C40ED11C9923FC
:101CD00009F45BC040E0D6011196F60190836D01D6
:101CE000552309F448C0012F060F9A81582F5071CF
:101CF00084FF03C0913309F4015010160CF047C063
:101D0000093008F008E0EEE2FE2E5B01A01AB108EF
:101D100085019194819491082F3F320729F4D601CF
:101D2000FC92F60131966F016217730794F1021766
:101D300013077CF5DB01A21BB30BAA24A394B12CDF
:101D4000AC0EBD1EAA0DBB1D11968C912150310900
:101D5000D601119628153905F4F0F60180836D013E
:101D6000DBCFB12CA12CA0CFF701B1937F01A15003
:101D7000AACF9111B0CFD601942F50E302C05D934A
:101D800091509111FCCFC40ED11C40E0ACCF01E0CA
:101D9000BACF80E3DBCF6217730731F4963388F450
:101DA000953311F4552369F0F6018083FD01842FEA
:101DB00090E2811108C0A40FB11D1C9290E080E058
:101DC00002CF81E3F1CF91938150F3CF911183CF73
:101DD0008ACF283008F027E03327DA01990F311D28
:101DE00087FD916000966105710539F432602E5FC0
:101DF0003D9330E32A95E1F708959F3F30F0803816
:101E00007105610509F03C5F3C5F3D93913008F03E
:101E10008068911DDF93CF931F930F93FF92EF92F2
:101E2000192F987F9695E92F96959695E90FFF279C
:101E3000EE53FF4F99273327EE24FF24A701E70134
:101E400005900894079428F4360FE71EF81E491FE2
:101E5000511D660F771F881F991F0694A1F70590E3
:101E6000079428F4E70EF81E491F561FC11D770F6F
:101E7000881F991F661F0694A1F70590079428F400
:101E8000F80E491F561FC71FD11D880F991F661FC7
:101E9000771F0694A1F70590079420F4490F561F69
:101EA000C71FD81F990F661F771F881F0694A9F7B1
:101EB00084911095177041F0D695C7955795479521
:101EC000F794E7941A95C1F7E8E6F0E06894159066
:101ED000159135916591959105907FE27395E11883
:101EE000F10A430B560BC90BD009C0F7E10CF11EE8
:101EF000431F561FC91FD01D7EF4703311F48A95FD
:101F0000E6CFE894015030F0080F0AF400270217DA
:101F100008F4202F2395022F7A3328F079E37D935C
:101F20002A95E9F710C07D932A9589F6069497952E
:101F30006795379517951794E118F10A430B560BDF
:101F4000C90BD00998F023957E9173957A3308F0E8
:101F500070E37C932013B8F77E9170617D9330F02D
:101F6000839571E37D9370E32A95E1F71124EF9057
:101F7000FF900F911F91CF91DF91992787FD909549
:101F80000895DC01FC01672F71917723E1F7329707
:101F900004C07C916D9370836291AE17BF07C8F344
:101FA00008950E94131008F481E00895E89409C090
:101FB00097FB3EF490958095709561957F4F8F4F7C
:101FC0009F4F9923A9F0F92F96E9BB279395F69592
:101FD000879577956795B795F111F8CFFAF4BB0F10
:101FE00011F460FF1BC06F5F7F4F8F4F9F4F16C074
:101FF000882311F096E911C0772321F09EE8872FFE
:10200000762F05C0662371F096E8862F70E060E0B9
:102010002AF09A95660F771F881FDAF7880F969532
:10202000879597F90895990F0008550FAA0BE0E8D6
:10203000FEEF16161706E807F907C0F0121613068A
:10204000E407F50798F0621B730B840B950B39F4CA
:102050000A2661F0232B242B252B21F408950A2630
:1020600009F4A140A6958FEF811D811D08950E945E
:102070004A100C94BB100E94AD1038F00E94B410AE
:1020800020F0952311F00C94A4100C94AA101124A4
:102090000C94EF100E94CC1070F3959FC1F3950F34
:1020A00050E0551F629FF001729FBB27F00DB11DDC
:1020B000639FAA27F00DB11DAA1F649F6627B00D6C
:1020C000A11D661F829F2227B00DA11D621F739F55
:1020D000B00DA11D621F839FA00D611D221F749F63
:1020E0003327A00D611D231F849F600D211D822FAA
:1020F000762F6A2F11249F5750409AF0F1F08823D1
:102100004AF0EE0FFF1FBB1F661F771F881F9150FD
:102110005040A9F79E3F510580F00C94A4100C94F8
:10212000EF105F3FE4F3983ED4F38695779567957B
:10213000B795F795E7959F5FC1F7FE2B880F911D27
:102140009695879597F9089597F99F6780E870E0CD
:1021500060E008959FEF80EC089500240A9416161D
:10216000170618060906089500240A941216130685
:10217000140605060895092E0394000C11F4882313
:1021800052F0BB0F40F4BF2B11F460FF04C06F5F2F
:102190007F4F8F4F9F4F089557FD9058440F551F05
:1021A00059F05F3F71F04795880F97FB991F61F0D9
:1021B0009F3F79F087950895121613061406551F50
:1021C000F2CF4695F1DF08C0161617061806991FBC
:1021D000F1CF86957105610508940895E894BB27B1
:1021E00066277727CB0197F908952F923F924F9258
:1021F0005F926F927F928F929F92AF92BF92CF9297
:10220000DF92EF92FF920F931F93CF93DF93CDB79F
:10221000DEB7CA1BDB0B0FB6F894DEBF0FBECDBF17
:1022200009942A88398848885F846E847D848C84E8
:102230009B84AA84B984C884DF80EE80FD800C81F1
:102240001B81AA81B981CE0FD11D0FB6F894DEBFD4
:102250000FBECDBFED010895A1E21A2EAA1BBB1B34
:10226000FD010DC0AA1FBB1FEE1FFF1FA217B30762
:10227000E407F50720F0A21BB30BE40BF50B661F78
:10228000771F881F991F1A9469F76095709580953C
:1022900090959B01AC01BD01CF010895EE0FFF1F8A
:1022A0000590F491E02D09945058BB27AA270E946D
:1022B0006C110C94BB100E94AD1038F00E94B41049
:1022C00020F039F49F3F19F426F40C94AA100EF470
:1022D000E095E7FB0C94A410E92F0E94CC1058F372
:1022E000BA17620773078407950720F079F4A6F5FB
:1022F0000C94EE100EF4E0950B2EBA2FA02D0B01CE
:10230000B90190010C01CA01A0011124FF27591B3A
:1023100099F0593F50F4503E68F11A16F040A22F40
:10232000232F342F4427585FF3CF469537952795B1
:10233000A795F0405395C9F77EF41F16BA0B620BB0
:10234000730B840BBAF09150A1F0FF0FBB1F661FF7
:10235000771F881FC2F70EC0BA0F621F731F841F3A
:1023600048F4879577956795B795F7959E3F08F060
:10237000B0CF9395880F08F09927EE0F9795879522
:1023800008950E94D5110C94BB100E94B41058F00F
:102390000E94AD1040F029F45F3F29F00C94A41086
:1023A00051110C94EF100C94AA100E94CC1068F3F9
:1023B0009923B1F3552391F3951B550BBB27AA27FE
:1023C00062177307840738F09F5F5F4F220F331F38
:1023D000441FAA1FA9F335D00E2E3AF0E0E832D000
:1023E00091505040E695001CCAF72BD0FE2F29D003
:1023F000660F771F881FBB1F261737074807AB07D5
:10240000B0E809F0BB0B802DBF01FF2793585F4F49
:102410003AF09E3F510578F00C94A4100C94EF1004
:102420005F3FE4F3983ED4F3869577956795B7952B
:10243000F7959F5FC9F7880F911D9695879597F936
:102440000895E1E0660F771F881FBB1F62177307AF
:102450008407BA0720F0621B730B840BBA0BEE1FC4
:1024600088F7E09508950E94D41088F09F5798F05F
:10247000B92F9927B751B0F0E1F0660F771F881F89
:10248000991F1AF0BA95C9F714C0B13091F00E94A3
:10249000EE10B1E008950C94EE10672F782F882786
:1024A000B85F39F0B93FCCF3869577956795B395CA
:1024B000D9F73EF490958095709561957F4F8F4F39
:1024C0009F4F08950E94131008F48FEF08950E9403
:1024D0001310880B990B08950F931F93CF93DF93DD
:1024E0008230910510F482E090E0E091DE03F091FB
:1024F000DF0330E020E0B0E0A0E0309799F4211550
:10250000310509F44AC0281B390B24303105D8F5B0
:102510008A819B816115710589F1FB019383828317
:10252000FE0111C040815181028113814817590772
:10253000E0F04817590799F4109761F012960C9340
:10254000129713961C933296CF01DF91CF911F9172
:102550000F9108950093DE031093DF03F4CF21154C
:10256000310551F04217530738F0A901DB019A01F8
:10257000BD01DF01F801C1CFEF01F9CF9093DF0377
:102580008093DE03CDCFFE01E20FF31F8193919381
:102590002250310939832883D7CF2091DC03309131
:1025A000DD03232B41F4209102013091030130938C
:1025B000DD032093DC0320910001309101012115FE
:1025C000310541F42DB73EB740910401509105010A
:1025D000241B350BE091DC03F091DD03E217F307D8
:1025E000A0F42E1B3F0B2817390778F0AC014E5F83
:1025F0005F4F2417350748F04E0F5F1F5093DD03E0
:102600004093DC03819391939FCFF0E0E0E09CCF77
:10261000CF93DF930097E9F0FC0132971382128287
:10262000A091DE03B091DF03ED0130E020E01097D0
:10263000A1F420813181820F931F2091DC0330911E
:10264000DD032817390709F061C0F093DD03E0933B
:10265000DC03DF91CF910895EA01CE17DF07E8F59B
:102660004A815B819E0141155105B1F7E901FB8368
:10267000EA8349915991C40FD51FEC17FD0761F406
:10268000808191810296840F951FE9019983888347
:10269000828193819B838A83F0E0E0E012968D91A2
:1026A0009C9113970097B9F52D913C911197CD010D
:1026B0000296820F931F2091DC033091DD032817CF
:1026C000390739F6309751F51092DF031092DE0387
:1026D000B093DD03A093DC03BCCFD383C2834081DE
:1026E0005181840F951FC817D90761F44E5F5F4F62
:1026F00088819981480F591F518340838A819B812A
:10270000938382832115310509F0B0CFF093DF0365
:10271000E093DE039ECFFD01DC01C0CF1382128265
:10272000D7CFB0E0A0E0E7E9F3E10C94F7108C011B
:10273000009751F4CB010E946C128C01C801CDB7F7
:10274000DEB7E0E10C941311FC01E60FF71F9C01CA
:1027500022503109E217F30708F49DC0D901CD9149
:10276000DC911197C617D70798F0C530D10530F323
:10277000CE0104978617970708F3C61BD70B22973D
:10278000C193D1936D937C93CF010E940813D6CF50
:102790005B01AC1ABD0A4C018C0E9D1EA091DE039C
:1027A000B091DF03512C412CF12CE12C109731F525
:1027B0008091DC039091DD038815990509F05CC0D8
:1027C0004616570608F058C080910001909101010B
:1027D000009741F48DB79EB74091040150910501D7
:1027E000841B950BE817F90708F055C0F093DD033B
:1027F000E093DC03F90171836083A0CF8D919C91FC
:10280000119712966C90129713967C901397A815B7
:10281000B90559F56C0142E0C40ED11CCA14DB04A1
:1028200020F1AC014A195B09DA011296159780F084
:102830006282738251834083D9016D937C93E1144A
:10284000F10471F0D7011396FC93EE93129776CFB3
:1028500022968C0F9D1FF90191838083F301EFCFA6
:10286000F093DF03E093DE0369CF4816590608F4BE
:102870002C017D01D3019ACFCB010E946C127C0107
:10288000009749F0AE01B8010E944E14C8010E94A1
:102890000813870153CF10E000E050CFFB01DC01AB
:1028A00002C001900D9241505040D8F70895FB01AD
:1028B000DC0101900D920020E1F70895FB01519198
:1028C0005523A9F0BF01DC014D9145174111E1F7F6
:1028D00059F4CD010190002049F04D91401541116E
:1028E000C9F3FB014111EFCF81E090E0019708951A
:1028F00010E0CFEDD0E004C0FE010E944E11219601
:0A290000C03ED107C9F7F894FFCFDD
:10290A000000E003800000000000D00330035D03F4
:10291A001D048E036C03800300000000560430037C
:10292A00E9045504B204C8043D040D0A006E616E40
:10293A0000696E66006F7666003E3E200057694663
:10294A00694E657600576946694A656C737A6F0005
:10295A005448494E47535045414B5F4150495F4B9C
:10296A00455945445F49444500437361746C616B42
:10297A006F7A6173206120576946692068616C6FBC
:10298A007A6174686F7A2E2E2E0041542B43574D6C
:10299A004F44453D310041542B43574A41503D2253
:1029AA0000222C220057694669206B617063736F9D
:1029BA006C6174206C657472656A6F747421004866
:1029CA006962612061204448543131206F6C76611C
:1029DA00736173616B6F722100486F6D6572736505
:1029EA006B6C65743A200020C2B04320207C202002
:1029FA005061726174617274616C6F6D3A2000206B
:102A0A00250041542B43495053544152543D2254BA
:102A1A004350222C226170692E7468696E67737044
:102A2A0065616B2E636F6D222C3830004552524F10
:102A3A005200474554202F7570646174653F617078
:102A4A00695F6B65793D00266669656C64313D0096
:102A5A0041542B43495053454E443D0041646174EF
:102A6A0020656C6B756C6476652061205468696EAC
:102A7A0067537065616B2D726521004E656D207319
:102A8A00696B6572756C74206B617063736F6C6FC0
:102A9A00646E69206120737A657276657268657AF8
:0E2AAA002E0041542B434950434C4F534500DE
:00000001FF
